:020000040000FA
:04000000000045288F
:040004000034003490
:080008000830A0009F30A100A8
:100010000130A200A00B0D28A10B0F28A20B0A286B
:100020000800E730A0000430A100A00B1828A10BA5
:1000300015280800831603138601870106309F00E8
:100040000F308500831203131C30860004308700B4
:100050000230A300A400A600A8000330A5000430CD
:10006000A7000130A90008008207013402340434DB
:100070000834103420344034051C6E28851C7F2839
:10008000051D8F28851D9F283C281A203C282508FF
:10009000A7002608A8002308A5002408A600080039
:1000A00023083420860024083420870011202508E6
:1000B00034208600260834208700112027083420A9
:1000C00086002808342087001120051C6E28851C16
:1000D0007F28051D8F28851D9F285028A91C712861
:1000E00050280130A900042047202308342086002E
:1000F000061C7D280630A3005028A3035028291C85
:10010000822850280230A9000420472023083420E8
:100110008600061F8D28A3015028A30A5028A91D78
:10012000922850280430A9000420472024083420B5
:100130008700071E9D28A4015028A40A5028291DC5
:10014000A22850280830A900042047202408342081
:100150008700071CAE280430A4005028A4035028B0
:02400E00313F40
:00000001FF
