:020000040000FA
:0400000000002428B0
:040004000034003490
:080008000F30A000AF30A10091
:100010000130A200A00B0D28A10B0F28A20B0A286B
:100020000800003085008316031306309F0030302F
:100030008500831203130800003086008316031323
:10004000860183120313080011201C202720051AA3
:100050002C20851A452027282E200800051C37282B
:10006000851C3728051D3728851D37283A28860F17
:100070003D283F28860F3D28422804200800850A95
:100080000420080085010420080047200800051806
:100090005728851857280519572885195728860A7B
:1000A000860B5B28FF308500860004200800860A46
:1000B000860B5B285E2886030420080085038609DA
:0400C0000420080010
:02400E00313F40
:00000001FF
