:020000040000FA
:0400000000005C2878
:040004000034003490
:08000800FD000308FE000A08D8
:10001000FF00831203130C10DB308E000B308F00B7
:10002000A20A02302202031D2828A201093024025C
:10003000031D1B281D28A40A282805302302031DA0
:1000400022282528A30AA4012828A301A4012828DE
:100050007F088A007E088300FD0E7D0E0900E730D0
:10006000A0000430A100A00B3628A10B332800000B
:100070000000080082073F3406345B344F34663496
:100080006D347C3407347F346F34313090000C1081
:100090008316031306309F00850186010C1483121A
:1000A00003138601A201DB308E000B308F00C030BD
:1000B0008B00A301A401080045200130850023081E
:1000C0003A2086002F200230850024083A2086003E
:0400D0002F205D2858
:02400E00313F40
:00000001FF
